:020000040800F2
:10000000680600206D0100087501000877010008EE
:10001000790100087B0100087D0100080000000054
:100020000000000000000000000000007F01000848
:10003000810100080000000083010008850100081C
:100040008701000887010008870100088701000870
:1000500087010008870100082902000887010008BD
:100060008701000887010008870100088701000850
:100070008701000887010008870100088701000840
:100080008701000887010008870100088701000830
:100090008701000887010008870100088701000820
:1000A0008701000887010008870100088701000810
:1000B0008701000887010008870100088701000800
:1000C00087010008870100088701000887010008F0
:1000D00087010008870100088701000887010008E0
:1000E00087010008870100088701000800F002F876
:1000F00000F02CF80AA090E8000C82448344AAF196
:100100000107DA4501D100F021F8AFF2090EBAE893
:100110000F0013F0010F18BFFB1A43F0010318473B
:10012000780A0000880A0000002300240025002629
:10013000103A28BF78C1FBD8520728BF30C148BF4A
:100140000B6070471FB51FBD10B510BD00F031F832
:100150001146FFF7F7FF00F0F5FC00F04FF803B48D
:10016000FFF7F2FF03BC00F057F800000948804792
:1001700009480047FEE7FEE7FEE7FEE7FEE7FEE789
:10018000FEE7FEE7FEE7FEE704480549054A064BA1
:1001900070470000DD0A0008ED000008680000203C
:1001A000680600206802002068020020704770473F
:1001B0007047754600F02CF8AE4605006946534678
:1001C00020F00700854618B020B5FFF7DDFFBDE839
:1001D00020404FF000064FF000074FF000084FF0AE
:1001E000000BAC46ACE8C009ACE8C009ACE8C009FB
:1001F000ACE8C00921F007018D46704710B50446F0
:10020000AFF300802046BDE81040FFF7A8BF000014
:10021000004870470000002001491820ABBEFEE7EF
:10022000260002007047000080B582B040F26000F6
:10023000C2F20000007868B9FFE700200221012225
:10024000019200F03FFA019840F26001C2F2000111
:1002500008700CE0022100220092104600F032FAF1
:10026000009840F26001C2F200010870FFE702B09E
:1002700080BD000081B08DF8030000208DF80200E1
:100280009DF803000F280FDCFFE79DF80310012005
:1002900000FA01F340F20042C4F20102116819436E
:1002A00011608DF8020003E000208DF80200FFE7E6
:1002B0009DF8020001B0704780B582B08DF806004D
:1002C0008DF805109DF806000F2805DCFFE79DF866
:1002D0000500032804DBFFE700208DF8070037E066
:1002E00000208DF804009DF8050020B9FFE70020EC
:1002F0008DF8040017E09DF80500012804D1FFE700
:1003000001208DF804000DE09DF80500022804D1BD
:10031000FFE702208DF8040003E000208DF80700BD
:1003200016E0FFE7FFE79DF806009DF8041000F0D7
:1003300089F88DF803009DF80300012804D1FFE738
:1003400001208DF8070003E000208DF80700FFE78B
:100350009DF8070002B080BD82B08DF807008DF8CF
:10036000061000208DF805009DF807000F2861DCBD
:10037000FFE79DF806000146009140B1FFE70098B5
:1003800001281ED0FFE70098022834D04DE09DF8E8
:100390000710012000FA01F340F20842C4F2010202
:1003A0001168194311609DF8071000FA01F340F23B
:1003B0000C42C4F201021168994311608DF80500E6
:1003C00037E09DF80710012000FA01F340F20842DF
:1003D000C4F201021168994311609DF8071000FAF8
:1003E00001F340F20C42C4F201021168194311609A
:1003F0008DF805001DE09DF80710012000FA01F3BB
:1004000040F20842C4F201021168194311609DF8DC
:10041000071000FA01F340F20C42C4F20102116825
:10042000194311608DF8050003E000208DF80500E8
:10043000FFE703E000208DF80500FFE79DF80500C9
:1004400002B0704782B08DF806008DF805100020CC
:100450008DF804009DF806000F2805DCFFE79DF8E5
:100460000500032805DBFFE79DF804008DF8070071
:1004700030E09DF8060080088DF803009DF8060026
:1004800000F003008DF806009DF8060081000F20A3
:1004900000FA01F39DF803200821C4F2010151F88C
:1004A0002200984341F822009DF805009DF806209F
:1004B000920000FA02F39DF8032051F8220018433D
:1004C00041F8220001208DF804009DF804008DF809
:1004D0000700FFE79DF8070002B0704782B08DF873
:1004E00007008DF806108DF8052000208DF8040017
:1004F0009DF807000146009148B1FFE700980128E8
:100500004BD0FFE70098022800F08D80D1E09DF8E5
:10051000060007281BDCFFE79DF8060081000F207E
:1005200000FA01F240F60001C4F2010108689043AC
:1005300008609DF805009DF80620920000FA02F27E
:1005400008681043086001208DF8040024E09DF83D
:1005500006000F281BDCFFE79DF8060081000F2036
:1005600000FA01F240F60401C4F201010868904368
:1005700008609DF805009DF80620920000FA02F23E
:1005800008681043086001208DF8040003E0002093
:100590008DF80400FFE7FFE78FE09DF806000728CD
:1005A0001BDCFFE79DF8060081000F2000FA01F236
:1005B00040F60041C4F201010868904308609DF8CC
:1005C00005009DF80620920000FA02F20868104328
:1005D000086001208DF8040024E09DF806000F2833
:1005E0001BDCFFE79DF8060081000F2000FA01F2F6
:1005F00040F60441C4F201010868904308609DF888
:1006000005009DF80620920000FA02F208681043E7
:10061000086001208DF8040003E000208DF804003C
:10062000FFE7FFE749E09DF8060007281BDCFFE72E
:100630009DF8060081000F2000FA01F241F200014E
:10064000C4F201010868904308609DF805009DF818
:100650000620920000FA02F20868104308600120A8
:100660008DF8040024E09DF806000F281BDCFFE74E
:100670009DF8060081000F2000FA01F241F204010A
:10068000C4F201010868904308609DF805009DF8D8
:100690000620920000FA02F2086810430860012068
:1006A0008DF8040003E000208DF80400FFE7FFE769
:1006B00003E000208DF80400FFE79DF8040002B07D
:1006C0007047000086B08DF816008DF815108DF873
:1006D000142000208DF813009DF81500102805DB6C
:1006E000FFE79DF813008DF817009DE09DF81600B8
:1006F0000146039140B1FFE70398012831D0FFE79D
:10070000039802285AD086E09DF814000146029111
:1007100098B1FFE7029801281ED1FFE79DF8151058
:10072000012000FA01F340F60C02C4F20102116844
:10073000194311608DF8130012E09DF81510012087
:1007400000FA01F340F60C02C4F201021168994369
:1007500011608DF8130003E000208DF81300FFE70F
:100760005DE09DF814000146019198B1FFE7019802
:1007700001281ED1FFE79DF81510012000FA01F3B2
:1007800040F60C42C4F201021168194311608DF861
:10079000130012E09DF81510012000FA01F340F655
:1007A0000C42C4F201021168994311608DF81300E4
:1007B00003E000208DF81300FFE730E09DF81400FF
:1007C0000146009198B1FFE7009801281ED1FFE78C
:1007D0009DF81510012000FA01F341F20C02C4F259
:1007E00001021168194311608DF8130012E09DF8A1
:1007F0001510012000FA01F341F20C02C4F20102CB
:100800001168994311608DF8130003E000208DF802
:100810001300FFE703E000208DF81300FFE79DF8C9
:1008200013008DF81700FFE79DF8170006B070471A
:1008300081B08DF8030000208DF802009DF80300C0
:100840001F280DDCFFE79DF80310012000FA01F1DD
:100850004EF20012CEF2000211608DF802002DE07F
:100860009DF803003F280FDCFFE79DF80300A0F18F
:100870002001012000FA01F14EF20412CEF2000232
:1008800011608DF8020018E09DF803005F280FDC6E
:10089000FFE79DF80300A0F14001012000FA01F1FB
:1008A0004EF20812CEF2000211608DF8020003E051
:1008B00000208DF80200FFE7FFE7FFE79DF8020048
:1008C00001B0704782B08DF807008DF80610002047
:1008D0008DF805009DF807000146009140B1FFE743
:1008E0000098012813D0FFE7009802281ED02CE0C2
:1008F0009DF80610012000FA01F341F21402C4F23F
:1009000002021168194311608DF8050021E09DF87D
:100910000610012000FA01F341F21C02C4F20202A7
:100920001168194311608DF8050012E09DF806105A
:10093000012000FA01F341F21802C4F20202116828
:10094000194311608DF8050003E000208DF80500C3
:10095000FFE79DF8050002B07047000081B000205D
:100960008DF8030041F20001C4F20201086820F48E
:1009700080200860086840F480300860FFE741F29A
:100980000000C4F20200006800F400310020B0EB67
:10099000514F01D1FFE7F2E741F20401C4F2020135
:1009A000012008608DF803009DF8030001B0704736
:1009B00080B500F001F880BD84B000200390029063
:1009C00041F20001C4F20201086840F4803008607E
:1009D000FFE741F20000C4F20200006800F40030BA
:1009E0000290039801300390FFE7029900200190E4
:1009F00039B9FFE70398B0F5A06018BF0120019056
:100A0000FFE70198C0070028E3D1FFE741F20000AB
:100A1000C4F2020000688003002803D5FFE701202C
:100A2000029002E000200290FFE70298012851D1D5
:100A3000FFE742F20001C4F20201086840F0100032
:100A40000860086820F007000860086840F00200AD
:100A5000086041F20401C4F20201009108680860D4
:100A600008680860086840F480600860086820F43E
:100A70007C100860086840F4E810086041F200014A
:100A8000C4F20201086840F080700860FFE741F29C
:100A90000000C4F2020000688001002801D4FFE7D2
:100AA000F5E741F20401C4F20201086820F00300F6
:100AB0000860086840F002000860FFE741F20400A7
:100AC000C4F20200006800F00C00082801D0FFE723
:100AD000F4E700E0FFE704B07047000080B541F2A2
:100AE0000002C4F20202106840F00100106041F2FE
:100AF0000401C4F2020108680023CFF6FF03184086
:100B0000086010684FF6FF73CFF6F6631840106068
:100B1000106820F480201060086820F4FE0008604F
:100B200041F20801C4F202014FF41F000860FFF710
:100B30003FFF4EF60851CEF200014FF00060086012
:100B400080BD000080B584B0002002900390FFF7C4
:100B500005FF029902200190FFF7B4FE01990846B3
:100B6000FFF7B0FE029908220846FFF7B7FC019A8A
:100B700002981146FFF7B2FC0620FFF759FE0299D2
:100B80000846FFF799FB02990846FFF7E5FB029834
:100B9000FFF770FBFFE7FEE7A80B0008000000204E
:080BA0006806000028010008AE
:040000050800016D81
:00000001FF
