:020000040800F2
:100000006806002099010008A1010008A30100086A
:10001000A5010008A7010008A901000800000000D0
:10002000000000000000000000000000AB0100081C
:10003000AD01000800000000AF010008E50E000857
:10004000B3010008B3010008B3010008B3010008C0
:10005000B3010008B3010008B3010008B3010008B0
:10006000B3010008B3010008B3010008B3010008A0
:10007000B3010008B3010008B3010008B301000890
:10008000B3010008B3010008B3010008B301000880
:10009000B3010008B3010008B3010008B301000870
:1000A000B3010008B3010008B3010008B301000860
:1000B000B3010008B3010008B3010008B301000850
:1000C000B3010008B3010008B3010008B301000840
:1000D000B3010008B3010008B3010008B301000830
:1000E000B3010008B3010008B301000800F002F8F2
:1000F00000F042F814A696E8000CB244B344DA4586
:1001000001D100F039F8BAE80F000FA696E83000E8
:10011000A5EB040504EB0607AAEB0704A7F101070A
:100120004FEA15154FEA3414A4F10104AC4201D38F
:1001300000F022F813F0010F18BFFB1A43F001037F
:1001400000F001F8DBE718473C1A00004C1A0000E9
:10015000704700000023002400250026103A28BF25
:1001600078C1FBD8520728BF30C148BF0B60704729
:100170001FB51FBD10B510BD00F031F81146FFF7D7
:10018000F7FF00F01BFF00F04FF803B4FFF7F2FF9A
:1001900003BC00F057F800000948804709480047B1
:1001A000FEE7FEE7FEE7FEE7FEE7FEE7FEE7FEE727
:1001B000FEE7FEE704480549054A064B7047000084
:1001C000550F0008ED0000086800002068060020B8
:1001D000680200206802002070477047704775462B
:1001E00000F02CF8AE4605006946534620F00700A3
:1001F000854618B020B5FFF7DDFFBDE820404FF081
:1002000000064FF000074FF000084FF0000BAC461F
:10021000ACE8C009ACE8C009ACE8C009ACE8C0096A
:1002200021F007018D46704710B50446AFF30080FA
:100230002046BDE81040FFF7A8BF00000048704707
:100240000000002001491820ABBEFEE72600020096
:100250007047000080B584B003908DF80B108DF8C6
:100260000A209DF80B0001282FDCFFE79DF80A000B
:1002700000282AD4FFE79DF80A000F2825DCFFE7B5
:1002800000208DF809009DF80B000146019120B176
:10029000FFE70198012805D00AE09DF80A008DF8D3
:1002A000090006E09DF80A0040308DF8090000E0E2
:1002B000FFE79DF8090040F080008DF808000398E2
:1002C0009DF8081000F0AAF900E0FFE704B080BD37
:1002D00080B586B00590059808B9FFE7ADE00598B0
:1002E000C17A01F00300C1F383010122039200F0FF
:1002F0009BFA039A0598417A01F00300C1F3830148
:1003000000F092FA039A0598817A01F00300C1F394
:10031000830100F089FA05980078042837D1FFE7B7
:1003200000208DF81300FFE79DF81300032813DC6D
:10033000FFE705989DF813100844417801F0030089
:10034000C1F38301012200F06FFAFFE79DF813006B
:1003500001308DF81300E7E70020C4F2A01000F090
:10036000E1FC05983821029100F058F90020C4F210
:10037000A00000F0D7FC0299059800F04FF99620F4
:1003800000F098FC0299059800F048F936E000204A
:100390008DF81200FFE79DF81200072813DCFFE735
:1003A00005989DF812100844417801F00300C1F34C
:1003B0008301012200F038FAFFE79DF812000130B6
:1003C0008DF81200E7E70020C4F2A01000F0AAFCAC
:1003D00005983821019100F021F90020C4F2A00015
:1003E00000F0A0FC0199059800F018F9962000F0A3
:1003F00061FC0199059800F011F9FFE705980121CA
:1004000000F00CF90598022100F008F90598062182
:1004100000F004F905980C2100F000F90598007827
:10042000042805D1FFE70598282100F0F7F8FFE739
:100430000598802100F0F2F8FFE706B080BD0000CB
:1004400080B584B003908DF80B1000208DF80A0061
:10045000FFE79DF80A00032818DCFFE703989DF8E2
:100460000A301844417801F00300C1F383019DF87C
:100470000B200433DA4002F0010200F0D7FAFFE764
:100480009DF80A0001308DF80A00E2E70398C17A6E
:1004900001F00300C1F38301012200F0C7FA00203C
:1004A000C4F2A00000F03EFC0398C17A01F0030002
:1004B000C1F383010022019200F0B8FA01989DF87F
:1004C0000B1009018DF80B108DF80900FFE79DF85E
:1004D0000900032818DCFFE703989DF80930184449
:1004E000417801F00300C1F383019DF80B20043330
:1004F000DA4002F0010200F099FAFFE79DF80900E6
:1005000001308DF80900E2E70398C17A01F0030099
:10051000C1F38301012200F089FA0020C4F2A00097
:1005200000F000FC0398C17A01F00300C1F38301DD
:10053000002200F07BFA04B080BD000080B582B0DC
:1005400001908DF8031000208DF80200FFE79DF860
:100550000200072817DCFFE701989DF802301844D5
:10056000417801F00300C1F383019DF80320DA40D4
:1005700002F0010200F05AFAFFE79DF80200013094
:100580008DF80200E3E70198C17A01F00300C1F39E
:100590008301012200F04AFA0020C4F2A00000F01A
:1005A000C1FB0198C17A01F00300C1F3830100226D
:1005B00000F03CFA02B080BD80B582B001908DF8A9
:1005C00003100198417A01F00300C1F38301012275
:1005D00000F02CFA0198817A01F00300C1F3830145
:1005E000002200F023FA01980078042806D1FFE7E2
:1005F00001989DF80310FFF723FF0CE001980078A5
:10060000082806D1FFE701989DF80310FFF796FF31
:1006100000E000E0FFE702B080BD000080B584B0DC
:1006200003908DF80B100398417A01F00300C1F399
:1006300083010022019200F0F9F9019A0398817A6E
:1006400001F00300C1F3830100F0F0F90398007892
:10065000042806D1FFE703989DF80B10FFF7F0FE82
:100660000CE003980078082806D1FFE703989DF86E
:100670000B10FFF763FF00E000E0FFE704B080BD70
:1006800080B586B0059004910020CDF80B00029053
:1006900001908DF803000498B0F1FF3F08DCFFE7FC
:1006A00005982D21FFF788FF049840420490FFE74A
:1006B000FFE7049846F26761C6F2666180FB01239A
:1006C0009A1002EBD37202EB8202A0EB42009DF97A
:1006D000033001AAD054049880FB0101881000EB7C
:1006E000D17004909DF8030001308DF80300FFE7FE
:1006F00004980028DDD1FFE79DF8030001388DF84C
:100700000300FFE79DF90300002810D4FFE70598D8
:100710009DF9032001A9895C3031C9B2FFF74CFF74
:10072000FFE79DF8030001388DF80300EAE706B003
:1007300080BD000080B58CB00B900993089208989A
:10074000099900F0DDFE07900B980799FFF798FFD5
:100750000B982E21FFF730FF08980190099802901E
:10076000079800F011FF024601980B46029901F02C
:100770001DF80591049003208DF80F0000208DF8DE
:100780000E00FFE79DF80E009DF80F1088422ADA50
:10079000FFE70498059900220023C4F2240300F027
:1007A00007FF059104900498059900F079FE8DF8F3
:1007B0000D000B989DF80D103031C9B2FFF7FCFE0B
:1007C0009DF80D0000F0C9FE02460B4604980599FD
:1007D00000F0ECFF05910490FFE79DF80E0001305A
:1007E0008DF80E00CEE70CB080BD000080B584B05F
:1007F0000390029100208DF80700FFE702989DF812
:100800000710405C68B1FFE7039802999DF8072044
:10081000895CFFF7D1FE9DF8070001308DF80700D5
:10082000ECE704B080BD000082B08DF807008DF8C1
:1008300006108DF8052000208DF804009DF80700B3
:100840000146009148B1FFE70098012850D0FFE72A
:100850000098022800F09780E0E09DF80600072845
:100860001BDCFFE79DF8060081000F2000FA01F273
:1008700040F60001C4F201010868904308609DF849
:1008800005009DF80620920000FA02F20868104365
:10089000086001208DF8040029E09DF806000F286B
:1008A00020DCFFE79DF8060008388DF806009DF86B
:1008B000060081000F2000FA01F240F60401C4F2A4
:1008C00001010868904308609DF805009DF8062026
:1008D000920000FA02F208681043086001208DF8C7
:1008E000040003E000208DF80400FFE7FFE799E033
:1008F0009DF8060007281BDCFFE79DF80600810035
:100900000F2000FA01F240F60041C4F2010108682C
:10091000904308609DF805009DF80620920000FABB
:1009200002F208681043086001208DF8040029E0F5
:100930009DF806000F2820DCFFE79DF80600083828
:100940008DF806009DF8060081000F2000FA01F2E4
:1009500040F60441C4F201010868904308609DF824
:1009600005009DF80620920000FA02F20868104384
:10097000086001208DF8040003E000208DF80400D9
:10098000FFE7FFE74EE09DF8060007281BDCFFE7C6
:100990009DF8060081000F2000FA01F241F20001EB
:1009A000C4F201010868904308609DF805009DF8B5
:1009B0000620920000FA02F2086810430860012045
:1009C0008DF8040029E09DF806000F2820DCFFE7E1
:1009D0009DF8060008388DF806009DF80600810095
:1009E0000F2000FA01F241F20401C4F2010108688B
:1009F000904308609DF805009DF80620920000FADB
:100A000002F208681043086001208DF8040003E03A
:100A100000208DF80400FFE7FFE703E000208DF8D9
:100A20000400FFE79DF8040002B0704786B08DF81F
:100A300016008DF815108DF8142000208DF8130085
:100A40009DF81500102805DBFFE79DF813008DF8D1
:100A500017009DE09DF816000146039140B1FFE7A5
:100A60000398012831D0FFE7039802285AD086E086
:100A70009DF814000146029198B1FFE70298012801
:100A80001ED1FFE79DF81510012000FA01F340F692
:100A90000C02C4F201021168194311608DF81300B1
:100AA00012E09DF81510012000FA01F340F60C0247
:100AB000C4F201021168994311608DF8130003E03C
:100AC00000208DF81300FFE75DE09DF8140001465B
:100AD000019198B1FFE7019801281ED1FFE79DF829
:100AE0001510012000FA01F340F60C42C4F2010295
:100AF0001168194311608DF8130012E09DF815106C
:100B0000012000FA01F340F60C42C4F20102116820
:100B1000994311608DF8130003E000208DF8130055
:100B2000FFE730E09DF814000146009198B1FFE71F
:100B3000009801281ED1FFE79DF81510012000FA4A
:100B400001F341F20C02C4F2010211681943116071
:100B50008DF8130012E09DF81510012000FA01F342
:100B600041F20C02C4F201021168994311608DF840
:100B7000130003E000208DF81300FFE703E00020DE
:100B80008DF81300FFE79DF813008DF81700FFE7BD
:100B90009DF8170006B0704782B08DF807008DF8F9
:100BA000061000208DF805009DF807000146009111
:100BB00040B1FFE70098012813D0FFE70098022812
:100BC0001ED02CE09DF80610012000FA01F341F23E
:100BD0001402C4F202021168194311608DF8050075
:100BE00021E09DF80610012000FA01F341F21C02F9
:100BF000C4F202021168194311608DF8050012E079
:100C00009DF80610012000FA01F341F21802C4F227
:100C100002021168194311608DF8050003E00020FD
:100C20008DF80500FFE79DF8050002B07047000051
:100C300081B000208DF8030041F20001C4F20201EE
:100C4000086820F480200860086840F4803008605C
:100C5000FFE741F20000C4F20200006800F4003136
:100C60000020B0EB514F01D1FFE7F2E741F2040160
:100C7000C4F20201012008608DF803009DF8030012
:100C800001B070474EF21001CEF20001086820F06A
:100C9000010008604EF21802CEF20002002010603F
:100CA0004EF21402CEF200021060086820F4803088
:100CB0000860704780B584B0039000208DF80B0069
:100CC000039801909DF8070038BBFFE701984EF2AA
:100CD0001401CEF2000108604EF21001CEF20001C4
:100CE000086840F001000860FFE74EF21000CEF205
:100CF00000000068C003002801D4FFE7F5E74EF2CA
:100D00001001CEF20001086820F001000860FFF732
:100D1000B9FF01208DF80B00FFE79DF80B0004B030
:100D200080BD000080B584B00290029842F200417C
:100D3000C4F6741100F054FE00F026FE002244F2C6
:100D40000003C4F28F0300F051FA00F0D9FB0190C8
:100D50009DF8070038BBFFE701984EF21401CEF270
:100D6000000108604EF21001CEF20001086840F068
:100D700001000860FFE74EF21000CEF200000068AC
:100D8000C003002801D4FFE7F5E74EF21001CEF2D0
:100D90000001086820F001000860FFF773FF0120E0
:100DA0008DF80F0003E000208DF80F00FFE79DF89D
:100DB0000F0004B080BD000080B500F001F880BDD8
:100DC00084B000200390029041F20001C4F20201BD
:100DD000086840F480300860FFE741F20000C4F288
:100DE0000200006800F40030029003980130039084
:100DF000FFE702990020019039B9FFE70398B0F5A9
:100E0000A06018BF01200190FFE70198C0070028EB
:100E1000E3D1FFE741F20000C4F202000068800362
:100E2000002803D5FFE70120029002E00020029095
:100E3000FFE70298012851D1FFE742F20001C4F216
:100E40000201086840F010000860086820F0070000
:100E50000860086840F00200086041F20401C4F232
:100E6000020100910868086008680860086840F49A
:100E700080600860086820F47C100860086840F40E
:100E8000E810086041F20001C4F20201086840F075
:100E900080700860FFE741F20000C4F202000068C1
:100EA0008001002801D4FFE7F5E741F20401C4F214
:100EB0000201086820F003000860086840F00200A2
:100EC0000860FFE741F20400C4F20200006800F08D
:100ED0000C00082801D0FFE7F4E700E0FFE704B0CA
:100EE0007047000080B540F26000C2F20000006868
:100EF00070B3FFE740F26400C2F200000078C0B9AE
:100F0000FFE74EF21001CEF20001086820F0020067
:100F10000860086820F0010008604EF21801CEF267
:100F20000001002008604EF21401CEF200010860BA
:100F3000FFE740F26000C2F20000006880474EF216
:100F40001001CEF20001086820F480300860FFE74D
:100F500080BD000080B541F20002C4F202021068B8
:100F600040F00100106041F20401C4F2020108687F
:100F70000023CFF6FF031840086010684FF6FF7398
:100F8000CFF6F66318401060106820F480201060DF
:100F9000086820F4FE00086041F20801C4F2020172
:100FA0004FF41F000860FFF707FF4EF60851CEF21E
:100FB00000014FF00060086080BD000080B588B07F
:100FC000002002900790FFF733FE022101910846AE
:100FD000FFF7E2FD01980321FFF7DEFD02980421EF
:100FE0008DF810108DF80F00FFE79DF80F00032813
:100FF0001CDCFFE704A8411C9DF80F20885C00F072
:10100000FC00013088549DF80F20C2F10F03885C6A
:1010100003F00F0300F0C30040EA83008854FFE7A9
:101020009DF80F0001308DF80F00DEE79DF81B00E2
:1010300000F0FC008DF81B009DF81B0000F0C300C1
:101040002C308DF81B009DF8190000F0FC008DF885
:1010500019009DF8190000F0C30030308DF8190018
:1010600004A80090FFF734F9009841F67831C0F6F3
:101070000001FFF7BBFB009801210022FFF7EAF80F
:10108000009847F6E122CAF614624EF24713C4F202
:101090000203FFF74FFBFFE7FEE7000010B591EA00
:1010A000030F48BF83F0004300F18883841A71EB7B
:1010B000030C05D2121943EB0C03001B61EB0C016E
:1010C0004FEA1154A4EB135CDFF81CE11EEA430F56
:1010D00018BF9EEA445F00F0748021EA045123EABD
:1010E0000E0343F48013DCF1200E32D322FA0CFEFF
:1010F00010EB0E0023FA0CFE41EB0E01CCF1200E9A
:1011000003FA0EFE10EB0E00CCF1200E51F100019F
:10111000B1F5801F32D201EB045112FA0EF2BDE894
:10112000104058BF7047401C38BF5FEA420218BFEA
:101130007047002814BF20F0010041F100014FEA80
:10114000410313F5001F38BF7047A1F1C04100F003
:1011500027BB012A43EB0302ACF1200CDCF11F0E8C
:1011600032BF4FF0000E23FA0CF310EB030041EBFB
:101170000451B4EB115FD0D0A1EB045101F5801103
:10118000490801EB04515FEA30000ED350F1000032
:1011900038BF12FA0EFE08D1BDE81040C9E7401C66
:1011A00038BF5FEA4202CAD1C3E7BDE810404FEA48
:1011B000410313F5001F38BF7047A1F1C04100F093
:1011C000EFBA9EEA445F08D011EA5E0FBDE8104016
:1011D00004BF01F0004100207047BDE8104070B529
:1011E00000F090FA64FBBE3E0000E0FF2DE9C04134
:1011F00030B4DFF8A4C23CEA111418BF3CEA13145F
:1012000000F0ED801CEA111481EA030544EAD5746C
:1012100018BF1CEA131500F0C880A4EB050404F104
:101220007F7404F500344FF0004545EAC12145EADA
:10123000C32341EA505143EA52534FEAC0204FEAD8
:10124000C222994208BF904200F09D804FEA136588
:101250000FF24416765D4FEA134506FB05F7C7F11A
:10126000807706FB07F74FEAD737A7FB036876427C
:10127000A7FB06CEC8F5803838BFA8F1010807FBE8
:1012800008E6A6FB028C4FF0000EE6FB03CEDCF175
:10129000000CCEF1004E38BFAEF1010EA6FB0C588B
:1012A0004FF00007E6FB0E87A1FB08C6A0FB07CEA8
:1012B00016EB0E064FF0000545F10005E1FB076552
:1012C00015F1E04E7EBFA4F580345FEA46066D411D
:1012D00016F1800745F100054FEA172747EA056731
:1012E0004FEA15254FEA0666A6F1DE46B6F1805FA5
:1012F00020D9384605EBC47124F0010C01EB0C1128
:10130000BCF1FE6F02D8F0BCBDE8008124425CBF96
:1013100001F5801E9EEAC47F02D4F0BCBDE80081C6
:10132000244200F13980A1F1C041F0BCBDE8004188
:1013300000F036BA4FEAD02040EA41504FEAD121BE
:101340004FEAD22242EA43524FEAD323A7FB028656
:1013500007FB036605FB02661EEA0E0F58BFA6EBED
:101360000056B6EB00564FEA520E4EEAC37E18EB1B
:101370000E0E56EB530EBCD518EB02085E417F1CD7
:1013800055F10005B5E74FF480154FF000074FF019
:1013900000064FF00008ACE701F1C04101F0004148
:1013A0004FF00000F0BCBDE800810CEA131511EA13
:1013B0000C1F00D00CE013EA0C1F00F026804FF049
:1013C000000081EA030101F00041F0BCBDE80081AA
:1013D000F0BCBDE8004181EA030100F0E1B9F0BCD6
:1013E000BDE8004170B500F08DF900BF097EFC3EFC
:1013F00000F007B84FF0000081EA030101F000415E
:10140000704781EA030100F0CBB9F0BCBDE80041B0
:1014100022494FF000007047FFFDFBF9F7F5F4F2A9
:10142000F0EEEDEBE9E8E6E4E3E1E0DEDDDBDAD87F
:10143000D7D5D4D3D1D0CFCDCCCBCAC8C7C6C5C4DD
:10144000C2C1C0BFBEBDBCBBBAB9B8B7B6B5B4B3F4
:10145000B2B1B0AFAEADACABAAA9A8A8A7A6A5A4DF
:10146000A3A3A2A1A09F9F9E9D9C9C9B9A999998A3
:101470009797969595949393929191908F8F8E8E46
:101480008D8C8C8B8B8A89898888878786858584D3
:1014900084838382828181800000FF070000F87FBF
:1014A0004FEA41034FEA5353A3F58063D3F11E0380
:1014B000C8BFD3F1210C0CDD4FF0004242EAC1223B
:1014C00042EA505232FA03FC8CEAE17CACEBE17068
:1014D0007047102BC4BF0020704703F5787CBCF127
:1014E000FF3F04D06FF0004282EA2100704770B5E0
:1014F00000F008F94992248000207047F2E70000CC
:101500004FEA1153A3F58063D3F11E03A8BFD3F1B3
:10151000200C08DB4FF0004242EAC12252EA50524E
:1015200032FA03F0704709420BD4102BC4BF0020DD
:10153000704703F5787CBCF1FF3F05D04FF0FF30DA
:1015400070474FF00000704770B500F0DBF800BF47
:101550004992248000207047F0E710F0004248BF15
:101560004042B0FA80F310FA03F10AD0C3F11D0330
:1015700003F5806302EB03524FEA415002EBD121A5
:1015800070474FF000007047B0FA80F310FA03F193
:101590000AD0C3F11D0303F580634FEA03524FEAFB
:1015A000415002EBD12170474FF00000704700001E
:1015B00070B5DFF848C11CEA111E1EBF1CEA1315E6
:1015C0009EEA0C0F95EA0C0F00F06F8081EA03048D
:1015D0004EEAD47EAE4421EA4C1123EA4C1341F486
:1015E000801143F48013AEF17F7EA1FB024CA0FB7F
:1015F0000365361955EB0C05A1FB034C4CF10003B8
:10160000A0FB021C16EB0C06654153F100030942D6
:1016100018BF46F0010613F4007F0BD14FEA0331E7
:101620004FEA053041EA155140EA165034036FF095
:1016300003020AE04FEAC3214FEAC52041EA5551AF
:1016400040EA5650F4026FF0020202EB2E4201EB28
:10165000025585EACE710AD05FEA440C18BF24F027
:10166000004450F1000041F1000120EAD47040F242
:10167000FE7C624500D270BDA84214BF4FF080448A
:101680004FF04044002E08BF0024BEF1806FA8BF79
:10169000A1F1C041BDE8704080F2828001F1C041FB
:1016A00001F000414FF0000070470CEA13159EEA6C
:1016B0000C0F18BF95EA0C0F06D081EA030E4FF00D
:1016C00000000EF0004170BD00F01CF88900013EE2
:1016D00000F007B800F009B84FEA430C5FEA5C5C21
:1016E00008D081EA030100F05BB84FEA410C5FEAE1
:1016F0005C5CF6D102494FF0000070470000FF0724
:101700000000F87F0EF1020E2EF0030E5EF8046B5F
:10171000364205D4012A43EB030515F5001F12D804
:10172000012841EB010C1CF5001F0CD80ED14FEA2B
:10173000D17C0CEB4C0C0CF1020C15F5001F08BF12
:101740004CEBD37C04E04FF0080C01E04FEAD37C73
:101750000CEB4C0526FA05F606F00706B6F1040C6C
:1017600006D20EEB860CBDE870404CF0010C6047D1
:10177000DFE80CF0090B02024FF00041A1F5002157
:101780004FF0000070BD19461046012851EB0104CE
:1017900018BFD4F5001484BF002001F0004170BDD3
:1017A0000808A0F500114FEA3101704710B591EA21
:1017B000030F48BF83F000433FF578AC841A71EB08
:1017C000030C07D28CF0004C121943EB0C03001BE6
:1017D00061EB0C014FEA1154A4EB135CDFF8A4E1B8
:1017E0001EEA430F18BF9EEA445F00F0B48021EA6E
:1017F000045123EA6E035242C3EB6E0338BF5B1EF3
:10180000DCF1200E25D322FA0CFE10EB0E0043FA79
:101810000CFE41EB0E01CCF1200E03FA0EFE10EB94
:101820000E00CCF1200E51F1000129D401EB04513E
:1018300012FA0EF2BDE8104058BF7047401C1CBFA2
:10184000B2F1004F704700280CBF491C20F0010086
:10185000704712EB020E43EB030218BF4FF0010E6C
:101860004EEA4202ACF1200CDCF11E0E56D943FACE
:101870000CFE10EB0E00CCF11E0E51F1FF31D5D550
:101880000EF1010E12FA0EFE404141EB010101EB97
:10189000445C5FEA5C5C10D901EB045110EBDE7034
:1018A00038BFBEF1004FBDE8104018BF7047002898
:1018B0000CBF491C20F00100704734D24FEAD42CF1
:1018C00024F4006411F500111BD0B1FA81F20B3A37
:1018D000A41AA41ED2F12003914030FA03F3194355
:1018E000904001EBCC7101EB0451002CBDE810409D
:1018F000A8BF704701F1C04101F000414FF0000066
:101900007047B0FA80F310FA03F102D1BDE810403D
:101910007047E41A173C4805C90AE2E701EB045195
:10192000BDE81040704749104FEA300001EB045108
:10193000BDE8104002E04FF0000170474A0008BFC8
:101940000042F8D0B2F5001F28BF704701F00041F7
:101950004FF0000070479EEA445F07D011EA5E0F27
:10196000BDE8104004BF002100207047BDE81040D2
:1019700070B5FFF7C7FE00BF40DFF63E104683F0AC
:10198000004170470000E0FF43004FEAD30C4FEAEC
:101990003C0C43401FBF40070CF1605113F0FE4F59
:1019A00070471CF0006F03D10CF00041002070471D
:1019B0000CF0004343EA507040EACC0010B500F050
:1019C00090F800BF000000924FEA0001FFF7E8BE68
:1019D0004FF00041A1F500214FF0000070470000DA
:1019E0004FF47F0C1CEAD0121EBF1CEAD11392EAFE
:1019F0000C0F93EA0C0F00F0478090EA010F48BFEC
:101A000042F480724FF0004C4CEA00204CEA012175
:101A100002EB0302A0FB0113A2F50002002918BF8C
:101A200043F001035B0028BF4FEA330342EB22423D
:101A30005FEA132C4CEBC2502EBFBCEB436FB2F5E8
:101A40007C0F70474FEA036CBCF1004F08BF20F0D9
:101A50000100B2F57C0F38BF70470BD582F0FF0252
:101A600012F5803FC8BF704700F1C040D8BF00F0FA
:101A70000040704700F5000C5FEA4C0C48BF70470F
:101A8000B0F1C04000F073B80CEAD11390EA010F36
:101A900048BF42F48072624538BF634504D280EA91
:101AA000010000F00040704710B500F01AF800BFC8
:101AB0008900013E00F007B800F009B85FEA410C68
:101AC0005FEA1C6C08D080EA010000F050B85FEAC1
:101AD000400C5FEA1C6CF6D14FF00040A0F580008E
:101AE00070470EF1020E2EF0030E5EF8044B2442F6
:101AF00004D44FEA4102B2F17F4F11D84FEA4003BC
:101B0000B3F17F4F0CD80ED14FEAD07C0CEB4C0CCC
:101B10000CF1020CB2F17F4F08BF4CEBD17C04E01A
:101B20004FF0080C01E04FEAD17C0CEB4C0324FA97
:101B300003F404F00704B4F1040C06D20EEB840C99
:101B4000BDE810404CF0010C6047DFE80CF00708DE
:101B500002024FF00040A0F5800010BD0846420090
:101B600018BFD2F1807288BF00F0004010BDFF2185
:101B700041EAD050C005704749454545204153557D
:101B800053420000941B000800000020680600007B
:041B900054010008F4
:040000050800019955
:00000001FF
