:020000040800F2
:10000000680600206D0100087501000877010008EE
:10001000790100087B0100087D0100080000000054
:100020000000000000000000000000007F01000848
:100030008101000800000000830100089507000806
:100040008701000887010008870100088701000870
:100050008701000887010008870100088701000860
:100060008701000887010008870100088701000850
:100070008701000887010008870100088701000840
:100080008701000887010008870100088701000830
:100090008701000887010008870100088701000820
:1000A0008701000887010008870100088701000810
:1000B0008701000887010008870100088701000800
:1000C00087010008870100088701000887010008F0
:1000D00087010008870100088701000887010008E0
:1000E00087010008870100088701000800F002F876
:1000F00000F02CF80AA090E8000C82448344AAF196
:100100000107DA4501D100F021F8AFF2090EBAE893
:100110000F0013F0010F18BFFB1A43F0010318473B
:10012000DC130000EC13000000230024002500264F
:10013000103A28BF78C1FBD8520728BF30C148BF4A
:100140000B6070471FB51FBD10B510BD00F031F832
:100150001146FFF7F7FF00F09BFC00F04FF803B4E7
:10016000FFF7F2FF03BC00F057F800000948804792
:1001700009480047FEE7FEE7FEE7FEE7FEE7FEE789
:10018000FEE7FEE7FEE7FEE704480549054A064BA1
:100190007047000005080008ED0000086800002016
:1001A000680600206802002068020020704770473F
:1001B0007047754600F02CF8AE4605006946534678
:1001C00020F00700854618B020B5FFF7DDFFBDE839
:1001D00020404FF000064FF000074FF000084FF0AE
:1001E000000BAC46ACE8C009ACE8C009ACE8C009FB
:1001F000ACE8C00921F007018D46704710B50446F0
:10020000AFF300802046BDE81040FFF7A8BF000014
:10021000004870470000002001491820ABBEFEE7EF
:10022000260002007047000082B08DF807008DF8AC
:1002300006108DF8052000208DF804009DF80700B9
:100240000146009148B1FFE7009801284BD0FFE735
:100250000098022800F08D80D1E09DF80600072864
:100260001BDCFFE79DF8060081000F2000FA01F279
:1002700040F60001C4F201010868904308609DF84F
:1002800005009DF80620920000FA02F2086810436B
:10029000086001208DF8040024E09DF806000F2876
:1002A0001BDCFFE79DF8060081000F2000FA01F239
:1002B00040F60401C4F201010868904308609DF80B
:1002C00005009DF80620920000FA02F2086810432B
:1002D000086001208DF8040003E000208DF8040080
:1002E000FFE7FFE78FE09DF8060007281BDCFFE72C
:1002F0009DF8060081000F2000FA01F240F600414F
:10030000C4F201010868904308609DF805009DF85B
:100310000620920000FA02F20868104308600120EB
:100320008DF8040024E09DF806000F281BDCFFE791
:100330009DF8060081000F2000FA01F240F604410A
:10034000C4F201010868904308609DF805009DF81B
:100350000620920000FA02F20868104308600120AB
:100360008DF8040003E000208DF80400FFE7FFE7AC
:1003700049E09DF8060007281BDCFFE79DF8060012
:1003800081000F2000FA01F241F20001C4F20101E4
:100390000868904308609DF805009DF806209200CB
:1003A00000FA02F208681043086001208DF804008A
:1003B00024E09DF806000F281BDCFFE79DF80600EF
:1003C00081000F2000FA01F241F20401C4F20101A0
:1003D0000868904308609DF805009DF8062092008B
:1003E00000FA02F208681043086001208DF804004A
:1003F00003E000208DF80400FFE7FFE703E00020A2
:100400008DF80400FFE79DF8040002B0704700007B
:1004100086B08DF816008DF815108DF81420002088
:100420008DF813009DF81500102805DBFFE79DF8F7
:1004300013008DF817009DE09DF81600014603910A
:1004400040B1FFE70398012831D0FFE70398022865
:100450005AD086E09DF814000146029198B1FFE75A
:10046000029801281ED1FFE79DF81510012000FA1F
:1004700001F340F60C02C4F2010211681943116045
:100480008DF8130012E09DF81510012000FA01F319
:1004900040F60C02C4F201021168994311608DF814
:1004A000130003E000208DF81300FFE75DE09DF8E6
:1004B00014000146019198B1FFE7019801281ED16F
:1004C000FFE79DF81510012000FA01F340F60C42F9
:1004D000C4F201021168194311608DF8130012E093
:1004E0009DF81510012000FA01F340F60C42C4F209
:1004F00001021168994311608DF8130003E0002098
:100500008DF81300FFE730E09DF8140001460091DC
:1005100098B1FFE7009801281ED1FFE79DF815105C
:10052000012000FA01F341F20C02C4F20102116849
:10053000194311608DF8130012E09DF81510012089
:1005400000FA01F341F20C02C4F20102116899436E
:1005500011608DF8130003E000208DF81300FFE711
:1005600003E000208DF81300FFE79DF813008DF8DD
:100570001700FFE79DF8170006B0704782B08DF8AE
:1005800007008DF8061000208DF805009DF8070083
:100590000146009140B1FFE70098012813D0FFE722
:1005A000009802281ED02CE09DF80610012000FAC9
:1005B00001F341F21402C4F20202116819431160FE
:1005C0008DF8050021E09DF80610012000FA01F3E6
:1005D00041F21C02C4F202021168194311608DF845
:1005E000050012E09DF80610012000FA01F341F227
:1005F0001802C4F202021168194311608DF8050057
:1006000003E000208DF80500FFE79DF8050002B02B
:100610007047000081B000208DF8030041F2000116
:10062000C4F20201086820F480200860086840F4E1
:1006300080300860FFE741F20000C4F20200006869
:1006400000F400310020B0EB514F01D1FFE7F2E799
:1006500041F20401C4F20201012008608DF8030098
:100660009DF8030001B0704780B500F001F880BD2F
:1006700084B000200390029041F20001C4F2020114
:10068000086840F480300860FFE741F20000C4F2DF
:100690000200006800F400300290039801300390DB
:1006A000FFE702990020019039B9FFE70398B0F500
:1006B000A06018BF01200190FFE70198C007002843
:1006C000E3D1FFE741F20000C4F2020000688003BA
:1006D000002803D5FFE70120029002E000200290ED
:1006E000FFE70298012851D1FFE742F20001C4F26E
:1006F0000201086840F010000860086820F0070058
:100700000860086840F00200086041F20401C4F289
:10071000020100910868086008680860086840F4F1
:1007200080600860086820F47C100860086840F465
:10073000E810086041F20001C4F20201086840F0CC
:1007400080700860FFE741F20000C4F20200006818
:100750008001002801D4FFE7F5E741F20401C4F26B
:100760000201086820F003000860086840F00200F9
:100770000860FFE741F20400C4F20200006800F0E4
:100780000C00082801D0FFE7F4E700E0FFE704B021
:100790007047000080B540F26000C2F200000068BF
:1007A00070B3FFE740F26400C2F200000078C0B905
:1007B000FFE74EF21001CEF20001086820F00200BF
:1007C0000860086820F0010008604EF21801CEF2BF
:1007D0000001002008604EF21401CEF20001086012
:1007E000FFE740F26000C2F20000006880474EF26E
:1007F0001001CEF20001086820F480300860FFE7A5
:1008000080BD000080B541F20002C4F2020210680F
:1008100040F00100106041F20401C4F202010868D6
:100820000023CFF6FF031840086010684FF6FF73EF
:10083000CFF6F66318401060106820F48020106036
:10084000086820F4FE00086041F20801C4F20201C9
:100850004FF41F000860FFF707FF4EF60851CEF275
:1008600000014FF00060086080BD000080B588B0D6
:100870000690069800798009C00748B9FFE743F65B
:100880000C01C4F20101086820F4805008600FE0F8
:10089000069800798009C00748B1FFE743F60C01CC
:1008A000C4F20101086840F480500860FFE7FFE7E8
:1008B00043F61001C4F20101086820F440500860BA
:1008C0000698007900F03002086840EA02200860CB
:1008D000069800798008800748B9FFE743F60C01C5
:1008E000C4F20101086820F4C060086029E006989D
:1008F0000079C0F3810001280DD1FFE743F60C0118
:10090000C4F20101086840F480600860086820F4BF
:100910000070086014E006980079C0F38100022896
:100920000DD1FFE743F60C01C4F20101086840F461
:1009300080600860086840F400700860FFE7FFE727
:10094000FFE706980068000100F082FC014642F2D1
:100950000040C4F6F42000F085FB0590059800F0F7
:1009600043FCADF8120005980190BDF8120000F0AC
:1009700057FC0146019800F04BFD4FF0834100F019
:100980007BFC00F0E1FA002202920023C3F6E07340
:1009900000F0C0F800F066F901460298ADF81010BA
:1009A0008DF80F00BDF81000102809DBFFE7BDF837
:1009B00010001038ADF8100001208DF80F00FFE78F
:1009C0009DF80F00012806D1FFE7BDF812000130A5
:1009D000ADF81200FFE7BDF81210BDF8100040EAB4
:1009E000011043F60801C4F20101086043F60C014E
:1009F000C4F20101086840F008000860086840F08F
:100A000004000860086840F4005008609DF81F006A
:100A100008B080BD83B00190ADF80210019820B1FC
:100A2000FFE7BDF8020020B9FFE7FF208DF80B00BB
:100A300029E00020ADF80000FFE7BDF80000BDF898
:100A4000021088421BDAFFE7FFE743F60000C4F21A
:100A5000010000688006002801D4FFE7F5E743F6AF
:100A60000400C4F2010000680199BDF80020885418
:100A7000FFE7BDF800000130ADF80000DDE7012020
:100A80008DF80B00FFE79DF80B0003B070470000E6
:100A900080B588B00020039007908DF81B00FFF709
:100AA000B9FD022102910846FFF768FD02980E2168
:100AB000FFF764FD039809210322FFF7B5FB0398B4
:100AC0000A2104220192FFF7AFFB0199029A0398D1
:100AD000FFF7AAFB029A03980121FFF7A5FB0398F1
:100AE00005904FF41650049004A8FFF7BFFEFFE7EF
:100AF0000DF11B000121FFF78DFF9DF81B00612800
:100B000006D1FFE7002004210122FFF781FCFFE767
:100B1000EEE7000010B591EA030F48BF83F00043F1
:100B200000F12C81841A71EB030C05D2121943EBEE
:100B30000C03001B61EB0C014FEA1154A4EB135C96
:100B4000DFF81CE11EEA430F18BF9EEA445F00F085
:100B5000748021EA045123EA0E0343F48013DCF18C
:100B6000200E32D322FA0CFE10EB0E0023FA0CFEFC
:100B700041EB0E01CCF1200E03FA0EFE10EB0E003D
:100B8000CCF1200E51F10001B1F5801F32D201EB02
:100B9000045112FA0EF2BDE8104058BF7047401CD5
:100BA00038BF5FEA420218BF7047002814BF20F028
:100BB000010041F100014FEA410313F5001F38BF66
:100BC0007047A1F1C04100F0CAB8012A43EB03020B
:100BD000ACF1200CDCF11F0E32BF4FF0000E23FAF7
:100BE0000CF310EB030041EB0451B4EB115FD0D0D8
:100BF000A1EB045101F58011490801EB04515FEAB2
:100C000030000ED350F1000038BF12FA0EFE08D1AA
:100C1000BDE81040C9E7401C38BF5FEA4202CAD1B4
:100C2000C3E7BDE810404FEA410313F5001F38BF8A
:100C30007047A1F1C04100F092B89EEA445F08D02D
:100C400011EA5E0FBDE8104004BF01F00041002032
:100C50007047BDE8104070B500F033F864FBBE3E4D
:100C60000000E0FF4FEA41034FEA5353A3F58063CE
:100C7000D3F11E03C8BFD3F1210C0CDD4FF00042AD
:100C800042EAC12242EA505232FA03FC8CEAE17C89
:100C9000ACEBE1707047102BC4BF0020704703F528
:100CA000787CBCF1FF3F04D06FF0004282EA210063
:100CB000704770B500F005F8499224800020704715
:100CC000F2E70EF1020E2EF0030E5EF8046B3642D0
:100CD00005D4012A43EB030515F5001F12D801289E
:100CE00041EB010C1CF5001F0CD80ED14FEAD17C52
:100CF0000CEB4C0C0CF1020C15F5001F08BF4CEB73
:100D0000D37C04E04FF0080C01E04FEAD37C0CEBFD
:100D10004C0526FA05F606F00706B6F1040C06D2D5
:100D20000EEB860CBDE870404CF0010C6047DFE82C
:100D30000CF0090B02024FF00041A1F500214FF029
:100D4000000070BD19461046012851EB010418BF80
:100D5000D4F5001484BF002001F0004170BD0808E4
:100D6000A0F500114FEA31017047000010B591EA7B
:100D7000030F48BF83F000433FF5D4AE841A71EBF4
:100D8000030C07D28CF0004C121943EB0C03001B30
:100D900061EB0C014FEA1154A4EB135CDFF8A4E102
:100DA0001EEA430F18BF9EEA445F00F0B48021EAB8
:100DB000045123EA6E035242C3EB6E0338BF5B1E3D
:100DC000DCF1200E25D322FA0CFE10EB0E0043FAC4
:100DD0000CFE41EB0E01CCF1200E03FA0EFE10EBDF
:100DE0000E00CCF1200E51F1000129D401EB045189
:100DF00012FA0EF2BDE8104058BF7047401C1CBFED
:100E0000B2F1004F704700280CBF491C20F00100D0
:100E1000704712EB020E43EB030218BF4FF0010EB6
:100E20004EEA4202ACF1200CDCF11E0E56D943FA18
:100E30000CFE10EB0E00CCF11E0E51F1FF31D5D59A
:100E40000EF1010E12FA0EFE404141EB010101EBE1
:100E5000445C5FEA5C5C10D901EB045110EBDE707E
:100E600038BFBEF1004FBDE8104018BF70470028E2
:100E70000CBF491C20F00100704734D24FEAD42C3B
:100E800024F4006411F500111BD0B1FA81F20B3A81
:100E9000A41AA41ED2F12003914030FA03F319439F
:100EA000904001EBCC7101EB0451002CBDE81040E7
:100EB000A8BF704701F1C04101F000414FF00000B0
:100EC0007047B0FA80F310FA03F102D1BDE8104088
:100ED0007047E41A173C4805C90AE2E701EB0451E0
:100EE000BDE81040704749104FEA300001EB045153
:100EF000BDE8104002E04FF0000170474A0008BF13
:100F00000042F8D0B2F5001F28BF704701F0004141
:100F10004FF0000070479EEA445F07D011EA5E0F71
:100F2000BDE8104004BF002100207047BDE810401C
:100F300070B5FFF7C6FE00BF40DFF63E104683F0F7
:100F4000004170470000E0FF43004FEAD30C4FEA36
:100F50003C0C43401FBF40070CF1605113F0FE4FA3
:100F600070471CF0006F03D10CF000410020704767
:100F70000CF0004343EA507040EACC0010B500F09A
:100F8000FCF900BF000000924FEA0001FFF7E7BE46
:100F90004FF00041A1F500214FF000007047000024
:100FA00090EA010F48BF81F0004100F13882421AF7
:100FB0003CBF801A89184FEAD052A2EBD1534FF0B0
:100FC0007F4C1CEA410F18BF9CEA026F00F03B8087
:100FD0004FF0004C4CEA00204CEA012121FA03FCBE
:100FE00010EB0C0C1ED202F1FF325FEA1C2040EB2A
:100FF000C25038BF70471CF07F0F4FEA400C18BF3B
:10100000BCF17F4F38BF7047C3F12003994008BF40
:1010100020F00100BCF17F4F38BF7047A0F1C04005
:1010200000F0F1B94FEA3C00000A40EBC25028BF83
:101030001CF0FF0F4FEA400CE6D018BFBCF17F4F09
:1010400038BF7047EAE79CEA026F05D010EA5C0FF0
:1010500008BF00F00040704710B500F08EF900BFE7
:1010600064FBBE3E4FF47F0C1CEAD0121EBF1CEA8C
:10107000D11392EA0C0F93EA0C0F00F0858090EAEE
:10108000010F48BF42F4807240F4000C41F40000AC
:101090002CF07F4120F07F4000B5A2EB030281429B
:1010A0000FF2081CACEB504E9EF800E0C0F10000BF
:1010B0004FEA4E0E00FB0EFC38BF49004FEA2C1CD5
:1010C0000CFB0EF34FEACE1E0EEB635E4FEA112CC3
:1010D0000EFB0CFC4FEAC1214FEA1C5300FB03112D
:1010E00002F5FA024FEA112C0EFB0CFC4FEA01311B
:1010F0004FEADC4C00FB0C1142EB2242C14228BFFC
:1011000009184CEB03335DF804EB10EB410143EBA2
:10111000C250B2F57C0F38BF704729D512F0F00FDE
:101120001CBF00F1C04000F0004070470081828386
:101130008485868788898B8C8D8E8F9192939596E6
:1011400097999A9C9D9FA0A2A3A5A7A8AAACAEB070
:10115000B2B3B5B7B9BCBEC0C2C5C7C9CCCED1D475
:10116000D7D9DCDFE2E6E9ECF0F3F7FAFE000000A5
:101170004FEA400C0CF1807CBCF17E4F28BF7047D9
:10118000B0F1C04000F03FB90CEAD11390EA010F72
:1011900048BF42F48072624538BF634507D213F4FA
:1011A0007F0F16D080EA010000F00040704710B5B4
:1011B00000F0E3F8097EFC3E00F005B880EA01008B
:1011C00000F00040704780EA010000F0004000F0AD
:1011D0001AB912F47F0F04BF0248704780EA010079
:1011E00000F011B90000C07F41000B0ED3F19E0248
:1011F00008D950F400034FEA032323FA02F048BF52
:101200004042704710B500F0B8F800BF4992248002
:10121000002070476FF0004282EA20007047000013
:1012200010F0004148BF4042B0FA80F310FA03F2D8
:10123000C3F19D030BD051EAC35101EB12205306B9
:1012400038BF704700F1010008BF20F0010070476F
:10125000B0FA80F310FA03F2C3F19D030AD0D90566
:1012600001EB1220530638BF704700F1010008BFA0
:1012700020F00100704700004FF47F0C1CEAD012F0
:101280001EBF1CEAD11392EA0C0F93EA0C0F00F078
:10129000478090EA010F48BF42F480724FF0004C43
:1012A0004CEA00204CEA012102EB0302A0FB0113EF
:1012B000A2F50002002918BF43F001035B0028BF1C
:1012C0004FEA330342EB22425FEA132C4CEBC2504D
:1012D0002EBFBCEB436FB2F57C0F70474FEA036C37
:1012E000BCF1004F08BF20F00100B2F57C0F38BF01
:1012F00070470BD582F0FF0212F5803FC8BF7047E0
:1013000000F1C040D8BF00F00040704700F5000C6D
:101310005FEA4C0C48BF7047B0F1C04000F073B8B2
:101320000CEAD11390EA010F48BF42F48072624583
:1013300038BF634504D280EA010000F000407047E6
:1013400010B500F01AF800BF8900013E00F007B8A0
:1013500000F009B85FEA410C5FEA1C6C08D080EA33
:10136000010000F050B85FEA400C5FEA1C6CF6D157
:101370004FF00040A0F5800070470EF1020E2EF0F5
:10138000030E5EF8044B244204D44FEA4102B2F14A
:101390007F4F11D84FEA4003B3F17F4F0CD80ED1E5
:1013A0004FEAD07C0CEB4C0C0CF1020CB2F17F4FED
:1013B00008BF4CEBD17C04E04FF0080C01E04FEA91
:1013C000D17C0CEB4C0324FA03F404F00704B4F1D1
:1013D000040C06D20EEB840CBDE810404CF0010C5E
:1013E0006047DFE80CF0070802024FF00040A0F56C
:1013F000800010BD0846420018BFD2F1807288BF3D
:1014000000F0004010BDFF2141EAD050C0057047F8
:1014100090EA010F48BF81F000413FF5C8AD421A84
:1014200004D882F00042A0EB020011444FEAD052EF
:10143000A2EBD1534FF07F4C1CEA410F18BF9CEA3E
:10144000026F4AD04FF0004C4CEA00204CEA0121D8
:1014500021FA03FCB0EB0C0C0FD412F0FE0F36D0C7
:101460005FEA4C001DD5001240EBC25038BF7047F8
:101470001CF03F0F18BF70470BE05FEA1C20A2F181
:10148000010240EBC25038BF70471CF07F0F18BFFD
:101490007047C3F12003994014BF401E20F00100A3
:1014A00070474FEA1223800808BF7047B0FA80FCEB
:1014B000A2EB0C02CCF1280C60FA0CF093EA122F8C
:1014C00004BF00EBC25070474FEAC3707047130A65
:1014D0005FEADC1008BF7047F6E79CEA026F04D0B1
:1014E00010EA5C0F08BF0020704710B5FFF745FFFA
:1014F00040DFF63E81F00040704700000C15000808
:0C15000000000020680600002801000820
:040000050800016D81
:00000001FF
